{
  "_format": "hh-sol-artifact-1",
  "contractName": "JobBoard",
  "sourceName": "contracts/jobs.sol",
  "abi": [
    {
      "anonymous": false,
      "inputs": [
        {
          "indexed": true,
          "internalType": "uint256",
          "name": "jobId",
          "type": "uint256"
        },
        {
          "indexed": true,
          "internalType": "address",
          "name": "applicant",
          "type": "address"
        }
      ],
      "name": "AppliedToJob",
      "type": "event"
    },
    {
      "anonymous": false,
      "inputs": [
        {
          "indexed": true,
          "internalType": "uint256",
          "name": "jobId",
          "type": "uint256"
        },
        {
          "indexed": true,
          "internalType": "address",
          "name": "employer",
          "type": "address"
        }
      ],
      "name": "JobClosed",
      "type": "event"
    },
    {
      "anonymous": false,
      "inputs": [
        {
          "indexed": true,
          "internalType": "uint256",
          "name": "jobId",
          "type": "uint256"
        },
        {
          "indexed": true,
          "internalType": "address",
          "name": "employer",
          "type": "address"
        }
      ],
      "name": "JobPosted",
      "type": "event"
    },
    {
      "inputs": [
        {
          "internalType": "uint256",
          "name": "",
          "type": "uint256"
        },
        {
          "internalType": "uint256",
          "name": "",
          "type": "uint256"
        }
      ],
      "name": "applications",
      "outputs": [
        {
          "internalType": "address",
          "name": "applicant",
          "type": "address"
        },
        {
          "internalType": "string",
          "name": "resumeIPFS",
          "type": "string"
        },
        {
          "internalType": "string",
          "name": "coverLetter",
          "type": "string"
        }
      ],
      "stateMutability": "view",
      "type": "function"
    },
    {
      "inputs": [
        {
          "internalType": "uint256",
          "name": "_jobId",
          "type": "uint256"
        },
        {
          "internalType": "string",
          "name": "_resumeIPFS",
          "type": "string"
        },
        {
          "internalType": "string",
          "name": "_coverLetter",
          "type": "string"
        }
      ],
      "name": "applyToJob",
      "outputs": [],
      "stateMutability": "nonpayable",
      "type": "function"
    },
    {
      "inputs": [
        {
          "internalType": "uint256",
          "name": "_jobId",
          "type": "uint256"
        }
      ],
      "name": "closeJob",
      "outputs": [],
      "stateMutability": "nonpayable",
      "type": "function"
    },
    {
      "inputs": [],
      "name": "getAllJobs",
      "outputs": [
        {
          "components": [
            {
              "internalType": "uint256",
              "name": "id",
              "type": "uint256"
            },
            {
              "internalType": "address",
              "name": "employer",
              "type": "address"
            },
            {
              "internalType": "string",
              "name": "title",
              "type": "string"
            },
            {
              "internalType": "string",
              "name": "description",
              "type": "string"
            },
            {
              "internalType": "string",
              "name": "location",
              "type": "string"
            },
            {
              "internalType": "uint256",
              "name": "salary",
              "type": "uint256"
            },
            {
              "internalType": "bool",
              "name": "isOpen",
              "type": "bool"
            }
          ],
          "internalType": "struct JobBoard.Job[]",
          "name": "",
          "type": "tuple[]"
        }
      ],
      "stateMutability": "view",
      "type": "function"
    },
    {
      "inputs": [
        {
          "internalType": "uint256",
          "name": "_jobId",
          "type": "uint256"
        }
      ],
      "name": "getApplications",
      "outputs": [
        {
          "components": [
            {
              "internalType": "address",
              "name": "applicant",
              "type": "address"
            },
            {
              "internalType": "string",
              "name": "resumeIPFS",
              "type": "string"
            },
            {
              "internalType": "string",
              "name": "coverLetter",
              "type": "string"
            }
          ],
          "internalType": "struct JobBoard.Application[]",
          "name": "",
          "type": "tuple[]"
        }
      ],
      "stateMutability": "view",
      "type": "function"
    },
    {
      "inputs": [],
      "name": "jobCounter",
      "outputs": [
        {
          "internalType": "uint256",
          "name": "",
          "type": "uint256"
        }
      ],
      "stateMutability": "view",
      "type": "function"
    },
    {
      "inputs": [
        {
          "internalType": "uint256",
          "name": "",
          "type": "uint256"
        }
      ],
      "name": "jobs",
      "outputs": [
        {
          "internalType": "uint256",
          "name": "id",
          "type": "uint256"
        },
        {
          "internalType": "address",
          "name": "employer",
          "type": "address"
        },
        {
          "internalType": "string",
          "name": "title",
          "type": "string"
        },
        {
          "internalType": "string",
          "name": "description",
          "type": "string"
        },
        {
          "internalType": "string",
          "name": "location",
          "type": "string"
        },
        {
          "internalType": "uint256",
          "name": "salary",
          "type": "uint256"
        },
        {
          "internalType": "bool",
          "name": "isOpen",
          "type": "bool"
        }
      ],
      "stateMutability": "view",
      "type": "function"
    },
    {
      "inputs": [
        {
          "internalType": "string",
          "name": "_title",
          "type": "string"
        },
        {
          "internalType": "string",
          "name": "_description",
          "type": "string"
        },
        {
          "internalType": "string",
          "name": "_location",
          "type": "string"
        },
        {
          "internalType": "uint256",
          "name": "_salary",
          "type": "uint256"
        }
      ],
      "name": "postJob",
      "outputs": [],
      "stateMutability": "nonpayable",
      "type": "function"
    }
  ],
  "bytecode": "0x6080604052348015600f57600080fd5b50611c6f8061001f6000396000f3fe608060405234801561001057600080fd5b50600436106100885760003560e01c80637a870b631161005b5780637a870b6314610119578063965a79fb1461014b578063af9f8c4414610169578063bc8c937d1461018557610088565b8063180aedf31461008d5780631e01abca146100c357806350355d76146100df57806371cc8d2d146100fd575b600080fd5b6100a760048036038101906100a29190610fa2565b6101b5565b6040516100ba97969594939291906110ca565b60405180910390f35b6100dd60048036038101906100d89190610fa2565b6103bc565b005b6100e76104d8565b6040516100f4919061114e565b60405180910390f35b6101176004803603810190610112919061129e565b6104de565b005b610133600480360381019061012e9190611329565b61066c565b60405161014293929190611369565b60405180910390f35b6101536107e3565b6040516101609190611591565b60405180910390f35b610183600480360381019061017e91906115b3565b610aec565b005b61019f600480360381019061019a9190610fa2565b610c71565b6040516101ac9190611787565b60405180910390f35b60016020528060005260406000206000915090508060000154908060010160009054906101000a900473ffffffffffffffffffffffffffffffffffffffff1690806002018054610204906117d8565b80601f0160208091040260200160405190810160405280929190818152602001828054610230906117d8565b801561027d5780601f106102525761010080835404028352916020019161027d565b820191906000526020600020905b81548152906001019060200180831161026057829003601f168201915b505050505090806003018054610292906117d8565b80601f01602080910402602001604051908101604052809291908181526020018280546102be906117d8565b801561030b5780601f106102e05761010080835404028352916020019161030b565b820191906000526020600020905b8154815290600101906020018083116102ee57829003601f168201915b505050505090806004018054610320906117d8565b80601f016020809104026020016040519081016040528092919081815260200182805461034c906117d8565b80156103995780601f1061036e57610100808354040283529160200191610399565b820191906000526020600020905b81548152906001019060200180831161037c57829003601f168201915b5050505050908060050154908060060160009054906101000a900460ff16905087565b806001600082815260200190815260200160002060010160009054906101000a900473ffffffffffffffffffffffffffffffffffffffff1673ffffffffffffffffffffffffffffffffffffffff163373ffffffffffffffffffffffffffffffffffffffff1614610461576040517f08c379a000000000000000000000000000000000000000000000000000000000815260040161045890611855565b60405180910390fd5b60006001600084815260200190815260200160002060060160006101000a81548160ff0219169083151502179055503373ffffffffffffffffffffffffffffffffffffffff16827f225e8602d919485e9a54c796e7ceb40e6ad02e5bcc5dce07355d117713e5166c60405160405180910390a35050565b60005481565b6001600084815260200190815260200160002060060160009054906101000a900460ff16610541576040517f08c379a0000000000000000000000000000000000000000000000000000000008152600401610538906118c1565b60405180910390fd5b6002600084815260200190815260200160002060405180606001604052803373ffffffffffffffffffffffffffffffffffffffff16815260200184815260200183815250908060018154018082558091505060019003906000526020600020906003020160009091909190915060008201518160000160006101000a81548173ffffffffffffffffffffffffffffffffffffffff021916908373ffffffffffffffffffffffffffffffffffffffff160217905550602082015181600101908161060a9190611a8d565b5060408201518160020190816106209190611a8d565b5050503373ffffffffffffffffffffffffffffffffffffffff16837f8bb274de5ef0c0bab941fa07478f65995d8c99cc4163cbf443b15212de67cfcc60405160405180910390a3505050565b6002602052816000526040600020818154811061068857600080fd5b9060005260206000209060030201600091509150508060000160009054906101000a900473ffffffffffffffffffffffffffffffffffffffff16908060010180546106d2906117d8565b80601f01602080910402602001604051908101604052809291908181526020018280546106fe906117d8565b801561074b5780601f106107205761010080835404028352916020019161074b565b820191906000526020600020905b81548152906001019060200180831161072e57829003601f168201915b505050505090806002018054610760906117d8565b80601f016020809104026020016040519081016040528092919081815260200182805461078c906117d8565b80156107d95780601f106107ae576101008083540402835291602001916107d9565b820191906000526020600020905b8154815290600101906020018083116107bc57829003601f168201915b5050505050905083565b60606000805467ffffffffffffffff81111561080257610801611173565b5b60405190808252806020026020018201604052801561083b57816020015b610828610f03565b8152602001906001900390816108205790505b5090506000600190505b6000548111610ae457600160008281526020019081526020016000206040518060e0016040529081600082015481526020016001820160009054906101000a900473ffffffffffffffffffffffffffffffffffffffff1673ffffffffffffffffffffffffffffffffffffffff1673ffffffffffffffffffffffffffffffffffffffff1681526020016002820180546108dc906117d8565b80601f0160208091040260200160405190810160405280929190818152602001828054610908906117d8565b80156109555780601f1061092a57610100808354040283529160200191610955565b820191906000526020600020905b81548152906001019060200180831161093857829003601f168201915b5050505050815260200160038201805461096e906117d8565b80601f016020809104026020016040519081016040528092919081815260200182805461099a906117d8565b80156109e75780601f106109bc576101008083540402835291602001916109e7565b820191906000526020600020905b8154815290600101906020018083116109ca57829003601f168201915b50505050508152602001600482018054610a00906117d8565b80601f0160208091040260200160405190810160405280929190818152602001828054610a2c906117d8565b8015610a795780601f10610a4e57610100808354040283529160200191610a79565b820191906000526020600020905b815481529060010190602001808311610a5c57829003601f168201915b50505050508152602001600582015481526020016006820160009054906101000a900460ff16151515158152505082600183610ab59190611b8e565b81518110610ac657610ac5611bc2565b5b60200260200101819052508080610adc90611bf1565b915050610845565b508091505090565b600080815480929190610afe90611bf1565b91905055506040518060e0016040528060005481526020013373ffffffffffffffffffffffffffffffffffffffff1681526020018581526020018481526020018381526020018281526020016001151581525060016000805481526020019081526020016000206000820151816000015560208201518160010160006101000a81548173ffffffffffffffffffffffffffffffffffffffff021916908373ffffffffffffffffffffffffffffffffffffffff1602179055506040820151816002019081610bcb9190611a8d565b506060820151816003019081610be19190611a8d565b506080820151816004019081610bf79190611a8d565b5060a0820151816005015560c08201518160060160006101000a81548160ff0219169083151502179055509050503373ffffffffffffffffffffffffffffffffffffffff166000547f26b8ce391c2405aac71abeacb24f9534266fd48a247b00fc3624f8830a3c440560405160405180910390a350505050565b6060816001600082815260200190815260200160002060010160009054906101000a900473ffffffffffffffffffffffffffffffffffffffff1673ffffffffffffffffffffffffffffffffffffffff163373ffffffffffffffffffffffffffffffffffffffff1614610d18576040517f08c379a0000000000000000000000000000000000000000000000000000000008152600401610d0f90611855565b60405180910390fd5b60026000848152602001908152602001600020805480602002602001604051908101604052809291908181526020016000905b82821015610ef757838290600052602060002090600302016040518060600160405290816000820160009054906101000a900473ffffffffffffffffffffffffffffffffffffffff1673ffffffffffffffffffffffffffffffffffffffff1673ffffffffffffffffffffffffffffffffffffffff168152602001600182018054610dd4906117d8565b80601f0160208091040260200160405190810160405280929190818152602001828054610e00906117d8565b8015610e4d5780601f10610e2257610100808354040283529160200191610e4d565b820191906000526020600020905b815481529060010190602001808311610e3057829003601f168201915b50505050508152602001600282018054610e66906117d8565b80601f0160208091040260200160405190810160405280929190818152602001828054610e92906117d8565b8015610edf5780601f10610eb457610100808354040283529160200191610edf565b820191906000526020600020905b815481529060010190602001808311610ec257829003601f168201915b50505050508152505081526020019060010190610d4b565b50505050915050919050565b6040518060e0016040528060008152602001600073ffffffffffffffffffffffffffffffffffffffff168152602001606081526020016060815260200160608152602001600081526020016000151581525090565b6000604051905090565b600080fd5b600080fd5b6000819050919050565b610f7f81610f6c565b8114610f8a57600080fd5b50565b600081359050610f9c81610f76565b92915050565b600060208284031215610fb857610fb7610f62565b5b6000610fc684828501610f8d565b91505092915050565b610fd881610f6c565b82525050565b600073ffffffffffffffffffffffffffffffffffffffff82169050919050565b600061100982610fde565b9050919050565b61101981610ffe565b82525050565b600081519050919050565b600082825260208201905092915050565b60005b8381101561105957808201518184015260208101905061103e565b60008484015250505050565b6000601f19601f8301169050919050565b60006110818261101f565b61108b818561102a565b935061109b81856020860161103b565b6110a481611065565b840191505092915050565b60008115159050919050565b6110c4816110af565b82525050565b600060e0820190506110df600083018a610fcf565b6110ec6020830189611010565b81810360408301526110fe8188611076565b905081810360608301526111128187611076565b905081810360808301526111268186611076565b905061113560a0830185610fcf565b61114260c08301846110bb565b98975050505050505050565b60006020820190506111636000830184610fcf565b92915050565b600080fd5b600080fd5b7f4e487b7100000000000000000000000000000000000000000000000000000000600052604160045260246000fd5b6111ab82611065565b810181811067ffffffffffffffff821117156111ca576111c9611173565b5b80604052505050565b60006111dd610f58565b90506111e982826111a2565b919050565b600067ffffffffffffffff82111561120957611208611173565b5b61121282611065565b9050602081019050919050565b82818337600083830152505050565b600061124161123c846111ee565b6111d3565b90508281526020810184848401111561125d5761125c61116e565b5b61126884828561121f565b509392505050565b600082601f83011261128557611284611169565b5b813561129584826020860161122e565b91505092915050565b6000806000606084860312156112b7576112b6610f62565b5b60006112c586828701610f8d565b935050602084013567ffffffffffffffff8111156112e6576112e5610f67565b5b6112f286828701611270565b925050604084013567ffffffffffffffff81111561131357611312610f67565b5b61131f86828701611270565b9150509250925092565b600080604083850312156113405761133f610f62565b5b600061134e85828601610f8d565b925050602061135f85828601610f8d565b9150509250929050565b600060608201905061137e6000830186611010565b81810360208301526113908185611076565b905081810360408301526113a48184611076565b9050949350505050565b600081519050919050565b600082825260208201905092915050565b6000819050602082019050919050565b6113e381610f6c565b82525050565b6113f281610ffe565b82525050565b600082825260208201905092915050565b60006114148261101f565b61141e81856113f8565b935061142e81856020860161103b565b61143781611065565b840191505092915050565b61144b816110af565b82525050565b600060e08301600083015161146960008601826113da565b50602083015161147c60208601826113e9565b50604083015184820360408601526114948282611409565b915050606083015184820360608601526114ae8282611409565b915050608083015184820360808601526114c88282611409565b91505060a08301516114dd60a08601826113da565b5060c08301516114f060c0860182611442565b508091505092915050565b60006115078383611451565b905092915050565b6000602082019050919050565b6000611527826113ae565b61153181856113b9565b935083602082028501611543856113ca565b8060005b8581101561157f578484038952815161156085826114fb565b945061156b8361150f565b925060208a01995050600181019050611547565b50829750879550505050505092915050565b600060208201905081810360008301526115ab818461151c565b905092915050565b600080600080608085870312156115cd576115cc610f62565b5b600085013567ffffffffffffffff8111156115eb576115ea610f67565b5b6115f787828801611270565b945050602085013567ffffffffffffffff81111561161857611617610f67565b5b61162487828801611270565b935050604085013567ffffffffffffffff81111561164557611644610f67565b5b61165187828801611270565b925050606061166287828801610f8d565b91505092959194509250565b600081519050919050565b600082825260208201905092915050565b6000819050602082019050919050565b60006060830160008301516116b260008601826113e9565b50602083015184820360208601526116ca8282611409565b915050604083015184820360408601526116e48282611409565b9150508091505092915050565b60006116fd838361169a565b905092915050565b6000602082019050919050565b600061171d8261166e565b6117278185611679565b9350836020820285016117398561168a565b8060005b85811015611775578484038952815161175685826116f1565b945061176183611705565b925060208a0199505060018101905061173d565b50829750879550505050505092915050565b600060208201905081810360008301526117a18184611712565b905092915050565b7f4e487b7100000000000000000000000000000000000000000000000000000000600052602260045260246000fd5b600060028204905060018216806117f057607f821691505b602082108103611803576118026117a9565b5b50919050565b7f4e6f74206a6f62206f776e657200000000000000000000000000000000000000600082015250565b600061183f600d8361102a565b915061184a82611809565b602082019050919050565b6000602082019050818103600083015261186e81611832565b9050919050565b7f4a6f6220636c6f73656400000000000000000000000000000000000000000000600082015250565b60006118ab600a8361102a565b91506118b682611875565b602082019050919050565b600060208201905081810360008301526118da8161189e565b9050919050565b60008190508160005260206000209050919050565b60006020601f8301049050919050565b600082821b905092915050565b6000600883026119437fffffffffffffffffffffffffffffffffffffffffffffffffffffffffffffffff82611906565b61194d8683611906565b95508019841693508086168417925050509392505050565b6000819050919050565b600061198a61198561198084610f6c565b611965565b610f6c565b9050919050565b6000819050919050565b6119a48361196f565b6119b86119b082611991565b848454611913565b825550505050565b600090565b6119cd6119c0565b6119d881848461199b565b505050565b5b818110156119fc576119f16000826119c5565b6001810190506119de565b5050565b601f821115611a4157611a12816118e1565b611a1b846118f6565b81016020851015611a2a578190505b611a3e611a36856118f6565b8301826119dd565b50505b505050565b600082821c905092915050565b6000611a6460001984600802611a46565b1980831691505092915050565b6000611a7d8383611a53565b9150826002028217905092915050565b611a968261101f565b67ffffffffffffffff811115611aaf57611aae611173565b5b611ab982546117d8565b611ac4828285611a00565b600060209050601f831160018114611af75760008415611ae5578287015190505b611aef8582611a71565b865550611b57565b601f198416611b05866118e1565b60005b82811015611b2d57848901518255600182019150602085019450602081019050611b08565b86831015611b4a5784890151611b46601f891682611a53565b8355505b6001600288020188555050505b505050505050565b7f4e487b7100000000000000000000000000000000000000000000000000000000600052601160045260246000fd5b6000611b9982610f6c565b9150611ba483610f6c565b9250828203905081811115611bbc57611bbb611b5f565b5b92915050565b7f4e487b7100000000000000000000000000000000000000000000000000000000600052603260045260246000fd5b6000611bfc82610f6c565b91507fffffffffffffffffffffffffffffffffffffffffffffffffffffffffffffffff8203611c2e57611c2d611b5f565b5b60018201905091905056fea2646970667358221220e64f8017da8d8ebdd3037cac802b9d22fa80b09ba1e97108e542cc7d1f19959d64736f6c634300081c0033",
  "linkReferences": {},
  "deployedLinkReferences": {}
}